{"abi":[{"inputs":[],"name":"createSellerContract","outputs":[],"stateMutability":"nonpayable","type":"function"},{"inputs":[{"internalType":"address","name":"seller","type":"address"}],"name":"getContactAddress","outputs":[{"internalType":"address","name":"","type":"address"}],"stateMutability":"view","type":"function"}],"devdoc":{"kind":"dev","methods":{},"version":1},"evm":{"assembly":"    /* \"Agrigrow.sol\":63:433  contract AgrigrowRoot {... */\n  mstore(0x40, 0x80)\n  callvalue\n  dup1\n  iszero\n  tag_1\n  jumpi\n  0x00\n  dup1\n  revert\ntag_1:\n  pop\n  dataSize(sub_0)\n  dup1\n  dataOffset(sub_0)\n  0x00\n  codecopy\n  0x00\n  return\nstop\n\nsub_0: assembly {\n        /* \"Agrigrow.sol\":63:433  contract AgrigrowRoot {... */\n      mstore(0x40, 0x80)\n      callvalue\n      dup1\n      iszero\n      tag_1\n      jumpi\n      0x00\n      dup1\n      revert\n    tag_1:\n      pop\n      jumpi(tag_2, lt(calldatasize, 0x04))\n      shr(0xe0, calldataload(0x00))\n      dup1\n      0x18818435\n      eq\n      tag_3\n      jumpi\n      dup1\n      0x3b1cdb09\n      eq\n      tag_4\n      jumpi\n    tag_2:\n      0x00\n      dup1\n      revert\n        /* \"Agrigrow.sol\":138:306  function createSellerContract() public {... */\n    tag_3:\n      tag_5\n      tag_6\n      jump\t// in\n    tag_5:\n      stop\n        /* \"Agrigrow.sol\":314:430  function getContactAddress(address seller) public view returns(address){... */\n    tag_4:\n      tag_7\n      0x04\n      dup1\n      calldatasize\n      sub\n      dup2\n      add\n      swap1\n      tag_8\n      swap2\n      swap1\n      tag_9\n      jump\t// in\n    tag_8:\n      tag_10\n      jump\t// in\n    tag_7:\n      mload(0x40)\n      tag_11\n      swap2\n      swap1\n      tag_12\n      jump\t// in\n    tag_11:\n      mload(0x40)\n      dup1\n      swap2\n      sub\n      swap1\n      return\n        /* \"Agrigrow.sol\":138:306  function createSellerContract() public {... */\n    tag_6:\n        /* \"Agrigrow.sol\":188:211  Agrigrow sellerContract */\n      0x00\n        /* \"Agrigrow.sol\":227:237  msg.sender */\n      caller\n        /* \"Agrigrow.sol\":214:238  new Agrigrow(msg.sender) */\n      mload(0x40)\n      tag_14\n      swap1\n      tag_15\n      jump\t// in\n    tag_14:\n      tag_16\n      swap2\n      swap1\n      tag_12\n      jump\t// in\n    tag_16:\n      mload(0x40)\n      dup1\n      swap2\n      sub\n      swap1\n      0x00\n      create\n      dup1\n      iszero\n      dup1\n      iszero\n      tag_17\n      jumpi\n      returndatasize\n      0x00\n      dup1\n      returndatacopy\n      revert(0x00, returndatasize)\n    tag_17:\n      pop\n        /* \"Agrigrow.sol\":188:238  Agrigrow sellerContract = new Agrigrow(msg.sender) */\n      swap1\n      pop\n        /* \"Agrigrow.sol\":283:297  sellerContract */\n      dup1\n        /* \"Agrigrow.sol\":249:260  addressList */\n      0x00\n        /* \"Agrigrow.sol\":249:272  addressList[msg.sender] */\n      dup1\n        /* \"Agrigrow.sol\":261:271  msg.sender */\n      caller\n        /* \"Agrigrow.sol\":249:272  addressList[msg.sender] */\n      0xffffffffffffffffffffffffffffffffffffffff\n      and\n      0xffffffffffffffffffffffffffffffffffffffff\n      and\n      dup2\n      mstore\n      0x20\n      add\n      swap1\n      dup2\n      mstore\n      0x20\n      add\n      0x00\n      keccak256\n      0x00\n        /* \"Agrigrow.sol\":249:298  addressList[msg.sender] = address(sellerContract) */\n      0x0100\n      exp\n      dup2\n      sload\n      dup2\n      0xffffffffffffffffffffffffffffffffffffffff\n      mul\n      not\n      and\n      swap1\n      dup4\n      0xffffffffffffffffffffffffffffffffffffffff\n      and\n      mul\n      or\n      swap1\n      sstore\n      pop\n        /* \"Agrigrow.sol\":177:306  {... */\n      pop\n        /* \"Agrigrow.sol\":138:306  function createSellerContract() public {... */\n      jump\t// out\n        /* \"Agrigrow.sol\":314:430  function getContactAddress(address seller) public view returns(address){... */\n    tag_10:\n        /* \"Agrigrow.sol\":377:384  address */\n      0x00\n        /* \"Agrigrow.sol\":403:414  addressList */\n      dup1\n        /* \"Agrigrow.sol\":403:422  addressList[seller] */\n      0x00\n        /* \"Agrigrow.sol\":415:421  seller */\n      dup4\n        /* \"Agrigrow.sol\":403:422  addressList[seller] */\n      0xffffffffffffffffffffffffffffffffffffffff\n      and\n      0xffffffffffffffffffffffffffffffffffffffff\n      and\n      dup2\n      mstore\n      0x20\n      add\n      swap1\n      dup2\n      mstore\n      0x20\n      add\n      0x00\n      keccak256\n      0x00\n      swap1\n      sload\n      swap1\n      0x0100\n      exp\n      swap1\n      div\n      0xffffffffffffffffffffffffffffffffffffffff\n      and\n        /* \"Agrigrow.sol\":396:422  return addressList[seller] */\n      swap1\n      pop\n        /* \"Agrigrow.sol\":314:430  function getContactAddress(address seller) public view returns(address){... */\n      swap2\n      swap1\n      pop\n      jump\t// out\n    tag_15:\n      dataSize(sub_0)\n      dup1\n      dataOffset(sub_0)\n      dup4\n      codecopy\n      add\n      swap1\n      jump\t// out\n        /* \"#utility.yul\":88:205   */\n    tag_20:\n        /* \"#utility.yul\":197:198   */\n      0x00\n        /* \"#utility.yul\":194:195   */\n      dup1\n        /* \"#utility.yul\":187:199   */\n      revert\n        /* \"#utility.yul\":334:460   */\n    tag_22:\n        /* \"#utility.yul\":371:378   */\n      0x00\n        /* \"#utility.yul\":411:453   */\n      0xffffffffffffffffffffffffffffffffffffffff\n        /* \"#utility.yul\":404:409   */\n      dup3\n        /* \"#utility.yul\":400:454   */\n      and\n        /* \"#utility.yul\":389:454   */\n      swap1\n      pop\n        /* \"#utility.yul\":334:460   */\n      swap2\n      swap1\n      pop\n      jump\t// out\n        /* \"#utility.yul\":466:562   */\n    tag_23:\n        /* \"#utility.yul\":503:510   */\n      0x00\n        /* \"#utility.yul\":532:556   */\n      tag_33\n        /* \"#utility.yul\":550:555   */\n      dup3\n        /* \"#utility.yul\":532:556   */\n      tag_22\n      jump\t// in\n    tag_33:\n        /* \"#utility.yul\":521:556   */\n      swap1\n      pop\n        /* \"#utility.yul\":466:562   */\n      swap2\n      swap1\n      pop\n      jump\t// out\n        /* \"#utility.yul\":568:690   */\n    tag_24:\n        /* \"#utility.yul\":641:665   */\n      tag_35\n        /* \"#utility.yul\":659:664   */\n      dup2\n        /* \"#utility.yul\":641:665   */\n      tag_23\n      jump\t// in\n    tag_35:\n        /* \"#utility.yul\":634:639   */\n      dup2\n        /* \"#utility.yul\":631:666   */\n      eq\n        /* \"#utility.yul\":621:684   */\n      tag_36\n      jumpi\n        /* \"#utility.yul\":680:681   */\n      0x00\n        /* \"#utility.yul\":677:678   */\n      dup1\n        /* \"#utility.yul\":670:682   */\n      revert\n        /* \"#utility.yul\":621:684   */\n    tag_36:\n        /* \"#utility.yul\":568:690   */\n      pop\n      jump\t// out\n        /* \"#utility.yul\":696:835   */\n    tag_25:\n        /* \"#utility.yul\":742:747   */\n      0x00\n        /* \"#utility.yul\":780:786   */\n      dup2\n        /* \"#utility.yul\":767:787   */\n      calldataload\n        /* \"#utility.yul\":758:787   */\n      swap1\n      pop\n        /* \"#utility.yul\":796:829   */\n      tag_38\n        /* \"#utility.yul\":823:828   */\n      dup2\n        /* \"#utility.yul\":796:829   */\n      tag_24\n      jump\t// in\n    tag_38:\n        /* \"#utility.yul\":696:835   */\n      swap3\n      swap2\n      pop\n      pop\n      jump\t// out\n        /* \"#utility.yul\":841:1170   */\n    tag_9:\n        /* \"#utility.yul\":900:906   */\n      0x00\n        /* \"#utility.yul\":949:951   */\n      0x20\n        /* \"#utility.yul\":937:946   */\n      dup3\n        /* \"#utility.yul\":928:935   */\n      dup5\n        /* \"#utility.yul\":924:947   */\n      sub\n        /* \"#utility.yul\":920:952   */\n      slt\n        /* \"#utility.yul\":917:1036   */\n      iszero\n      tag_40\n      jumpi\n        /* \"#utility.yul\":955:1034   */\n      tag_41\n      tag_20\n      jump\t// in\n    tag_41:\n        /* \"#utility.yul\":917:1036   */\n    tag_40:\n        /* \"#utility.yul\":1075:1076   */\n      0x00\n        /* \"#utility.yul\":1100:1153   */\n      tag_42\n        /* \"#utility.yul\":1145:1152   */\n      dup5\n        /* \"#utility.yul\":1136:1142   */\n      dup3\n        /* \"#utility.yul\":1125:1134   */\n      dup6\n        /* \"#utility.yul\":1121:1143   */\n      add\n        /* \"#utility.yul\":1100:1153   */\n      tag_25\n      jump\t// in\n    tag_42:\n        /* \"#utility.yul\":1090:1153   */\n      swap2\n      pop\n        /* \"#utility.yul\":1046:1163   */\n      pop\n        /* \"#utility.yul\":841:1170   */\n      swap3\n      swap2\n      pop\n      pop\n      jump\t// out\n        /* \"#utility.yul\":1176:1294   */\n    tag_26:\n        /* \"#utility.yul\":1263:1287   */\n      tag_44\n        /* \"#utility.yul\":1281:1286   */\n      dup2\n        /* \"#utility.yul\":1263:1287   */\n      tag_23\n      jump\t// in\n    tag_44:\n        /* \"#utility.yul\":1258:1261   */\n      dup3\n        /* \"#utility.yul\":1251:1288   */\n      mstore\n        /* \"#utility.yul\":1176:1294   */\n      pop\n      pop\n      jump\t// out\n        /* \"#utility.yul\":1300:1522   */\n    tag_12:\n        /* \"#utility.yul\":1393:1397   */\n      0x00\n        /* \"#utility.yul\":1431:1433   */\n      0x20\n        /* \"#utility.yul\":1420:1429   */\n      dup3\n        /* \"#utility.yul\":1416:1434   */\n      add\n        /* \"#utility.yul\":1408:1434   */\n      swap1\n      pop\n        /* \"#utility.yul\":1444:1515   */\n      tag_46\n        /* \"#utility.yul\":1512:1513   */\n      0x00\n        /* \"#utility.yul\":1501:1510   */\n      dup4\n        /* \"#utility.yul\":1497:1514   */\n      add\n        /* \"#utility.yul\":1488:1494   */\n      dup5\n        /* \"#utility.yul\":1444:1515   */\n      tag_26\n      jump\t// in\n    tag_46:\n        /* \"#utility.yul\":1300:1522   */\n      swap3\n      swap2\n      pop\n      pop\n      jump\t// out\n    stop\n\n    sub_0: assembly {\n            /* \"Agrigrow.sol\":437:1022  contract Agrigrow {... */\n          mstore(0x40, 0x80)\n            /* \"Agrigrow.sol\":618:680  constructor(address seller){... */\n          callvalue\n          dup1\n          iszero\n          tag_1\n          jumpi\n          0x00\n          dup1\n          revert\n        tag_1:\n          pop\n          mload(0x40)\n          sub(codesize, bytecodeSize)\n          dup1\n          bytecodeSize\n          dup4\n          codecopy\n          dup2\n          dup2\n          add\n          0x40\n          mstore\n          dup2\n          add\n          swap1\n          tag_2\n          swap2\n          swap1\n          tag_3\n          jump\t// in\n        tag_2:\n            /* \"Agrigrow.sol\":666:672  seller */\n          dup1\n            /* \"Agrigrow.sol\":656:663  manager */\n          0x00\n          dup1\n            /* \"Agrigrow.sol\":656:672  manager = seller */\n          0x0100\n          exp\n          dup2\n          sload\n          dup2\n          0xffffffffffffffffffffffffffffffffffffffff\n          mul\n          not\n          and\n          swap1\n          dup4\n          0xffffffffffffffffffffffffffffffffffffffff\n          and\n          mul\n          or\n          swap1\n          sstore\n          pop\n            /* \"Agrigrow.sol\":618:680  constructor(address seller){... */\n          pop\n            /* \"Agrigrow.sol\":437:1022  contract Agrigrow {... */\n          jump(tag_6)\n            /* \"#utility.yul\":88:205   */\n        tag_8:\n            /* \"#utility.yul\":197:198   */\n          0x00\n            /* \"#utility.yul\":194:195   */\n          dup1\n            /* \"#utility.yul\":187:199   */\n          revert\n            /* \"#utility.yul\":334:460   */\n        tag_10:\n            /* \"#utility.yul\":371:378   */\n          0x00\n            /* \"#utility.yul\":411:453   */\n          0xffffffffffffffffffffffffffffffffffffffff\n            /* \"#utility.yul\":404:409   */\n          dup3\n            /* \"#utility.yul\":400:454   */\n          and\n            /* \"#utility.yul\":389:454   */\n          swap1\n          pop\n            /* \"#utility.yul\":334:460   */\n          swap2\n          swap1\n          pop\n          jump\t// out\n            /* \"#utility.yul\":466:562   */\n        tag_11:\n            /* \"#utility.yul\":503:510   */\n          0x00\n            /* \"#utility.yul\":532:556   */\n          tag_20\n            /* \"#utility.yul\":550:555   */\n          dup3\n            /* \"#utility.yul\":532:556   */\n          tag_10\n          jump\t// in\n        tag_20:\n            /* \"#utility.yul\":521:556   */\n          swap1\n          pop\n            /* \"#utility.yul\":466:562   */\n          swap2\n          swap1\n          pop\n          jump\t// out\n            /* \"#utility.yul\":568:690   */\n        tag_12:\n            /* \"#utility.yul\":641:665   */\n          tag_22\n            /* \"#utility.yul\":659:664   */\n          dup2\n            /* \"#utility.yul\":641:665   */\n          tag_11\n          jump\t// in\n        tag_22:\n            /* \"#utility.yul\":634:639   */\n          dup2\n            /* \"#utility.yul\":631:666   */\n          eq\n            /* \"#utility.yul\":621:684   */\n          tag_23\n          jumpi\n            /* \"#utility.yul\":680:681   */\n          0x00\n            /* \"#utility.yul\":677:678   */\n          dup1\n            /* \"#utility.yul\":670:682   */\n          revert\n            /* \"#utility.yul\":621:684   */\n        tag_23:\n            /* \"#utility.yul\":568:690   */\n          pop\n          jump\t// out\n            /* \"#utility.yul\":696:839   */\n        tag_13:\n            /* \"#utility.yul\":753:758   */\n          0x00\n            /* \"#utility.yul\":784:790   */\n          dup2\n            /* \"#utility.yul\":778:791   */\n          mload\n            /* \"#utility.yul\":769:791   */\n          swap1\n          pop\n            /* \"#utility.yul\":800:833   */\n          tag_25\n            /* \"#utility.yul\":827:832   */\n          dup2\n            /* \"#utility.yul\":800:833   */\n          tag_12\n          jump\t// in\n        tag_25:\n            /* \"#utility.yul\":696:839   */\n          swap3\n          swap2\n          pop\n          pop\n          jump\t// out\n            /* \"#utility.yul\":845:1196   */\n        tag_3:\n            /* \"#utility.yul\":915:921   */\n          0x00\n            /* \"#utility.yul\":964:966   */\n          0x20\n            /* \"#utility.yul\":952:961   */\n          dup3\n            /* \"#utility.yul\":943:950   */\n          dup5\n            /* \"#utility.yul\":939:962   */\n          sub\n            /* \"#utility.yul\":935:967   */\n          slt\n            /* \"#utility.yul\":932:1051   */\n          iszero\n          tag_27\n          jumpi\n            /* \"#utility.yul\":970:1049   */\n          tag_28\n          tag_8\n          jump\t// in\n        tag_28:\n            /* \"#utility.yul\":932:1051   */\n        tag_27:\n            /* \"#utility.yul\":1090:1091   */\n          0x00\n            /* \"#utility.yul\":1115:1179   */\n          tag_29\n            /* \"#utility.yul\":1171:1178   */\n          dup5\n            /* \"#utility.yul\":1162:1168   */\n          dup3\n            /* \"#utility.yul\":1151:1160   */\n          dup6\n            /* \"#utility.yul\":1147:1169   */\n          add\n            /* \"#utility.yul\":1115:1179   */\n          tag_13\n          jump\t// in\n        tag_29:\n            /* \"#utility.yul\":1105:1179   */\n          swap2\n          pop\n            /* \"#utility.yul\":1061:1189   */\n          pop\n            /* \"#utility.yul\":845:1196   */\n          swap3\n          swap2\n          pop\n          pop\n          jump\t// out\n            /* \"Agrigrow.sol\":437:1022  contract Agrigrow {... */\n        tag_6:\n          dataSize(sub_0)\n          dup1\n          dataOffset(sub_0)\n          0x00\n          codecopy\n          0x00\n          return\n        stop\n\n        sub_0: assembly {\n                /* \"Agrigrow.sol\":437:1022  contract Agrigrow {... */\n              mstore(0x40, 0x80)\n              jumpi(tag_1, lt(calldatasize, 0x04))\n              shr(0xe0, calldataload(0x00))\n              dup1\n              0x2e1a7d4d\n              eq\n              tag_2\n              jumpi\n              dup1\n              0x481c6a75\n              eq\n              tag_3\n              jumpi\n              dup1\n              0xc290d691\n              eq\n              tag_4\n              jumpi\n            tag_1:\n              0x00\n              dup1\n              revert\n                /* \"Agrigrow.sol\":818:1017  function withdraw(uint256 payment) public onlyManager {... */\n            tag_2:\n              callvalue\n              dup1\n              iszero\n              tag_5\n              jumpi\n              0x00\n              dup1\n              revert\n            tag_5:\n              pop\n              tag_6\n              0x04\n              dup1\n              calldatasize\n              sub\n              dup2\n              add\n              swap1\n              tag_7\n              swap2\n              swap1\n              tag_8\n              jump\t// in\n            tag_7:\n              tag_9\n              jump\t// in\n            tag_6:\n              stop\n                /* \"Agrigrow.sol\":462:484  address public manager */\n            tag_3:\n              callvalue\n              dup1\n              iszero\n              tag_10\n              jumpi\n              0x00\n              dup1\n              revert\n            tag_10:\n              pop\n              tag_11\n              tag_12\n              jump\t// in\n            tag_11:\n              mload(0x40)\n              tag_13\n              swap2\n              swap1\n              tag_14\n              jump\t// in\n            tag_13:\n              mload(0x40)\n              dup1\n              swap2\n              sub\n              swap1\n              return\n                /* \"Agrigrow.sol\":692:810  function pay(uint256 due) public payable {... */\n            tag_4:\n              tag_15\n              0x04\n              dup1\n              calldatasize\n              sub\n              dup2\n              add\n              swap1\n              tag_16\n              swap2\n              swap1\n              tag_8\n              jump\t// in\n            tag_16:\n              tag_17\n              jump\t// in\n            tag_15:\n              stop\n                /* \"Agrigrow.sol\":818:1017  function withdraw(uint256 payment) public onlyManager {... */\n            tag_9:\n                /* \"Agrigrow.sol\":548:555  manager */\n              0x00\n              dup1\n              sload\n              swap1\n              0x0100\n              exp\n              swap1\n              div\n              0xffffffffffffffffffffffffffffffffffffffff\n              and\n                /* \"Agrigrow.sol\":534:555  msg.sender == manager */\n              0xffffffffffffffffffffffffffffffffffffffff\n              and\n                /* \"Agrigrow.sol\":534:544  msg.sender */\n              caller\n                /* \"Agrigrow.sol\":534:555  msg.sender == manager */\n              0xffffffffffffffffffffffffffffffffffffffff\n              and\n              eq\n                /* \"Agrigrow.sol\":526:590  require(msg.sender == manager, \"only seller can withdraw money\") */\n              tag_19\n              jumpi\n              mload(0x40)\n              0x08c379a000000000000000000000000000000000000000000000000000000000\n              dup2\n              mstore\n              0x04\n              add\n              tag_20\n              swap1\n              tag_21\n              jump\t// in\n            tag_20:\n              mload(0x40)\n              dup1\n              swap2\n              sub\n              swap1\n              revert\n            tag_19:\n                /* \"Agrigrow.sol\":916:923  payment */\n              dup1\n                /* \"Agrigrow.sol\":891:912  address(this).balance */\n              selfbalance\n                /* \"Agrigrow.sol\":891:923  address(this).balance >= payment */\n              lt\n              iszero\n                /* \"Agrigrow.sol\":883:964  require(address(this).balance >= payment, \"the buyer has not paid the bill yet\" ) */\n              tag_23\n              jumpi\n              mload(0x40)\n              0x08c379a000000000000000000000000000000000000000000000000000000000\n              dup2\n              mstore\n              0x04\n              add\n              tag_24\n              swap1\n              tag_25\n              jump\t// in\n            tag_24:\n              mload(0x40)\n              dup1\n              swap2\n              sub\n              swap1\n              revert\n            tag_23:\n                /* \"Agrigrow.sol\":983:990  manager */\n              0x00\n              dup1\n              sload\n              swap1\n              0x0100\n              exp\n              swap1\n              div\n              0xffffffffffffffffffffffffffffffffffffffff\n              and\n                /* \"Agrigrow.sol\":975:1000  payable(manager).transfer */\n              0xffffffffffffffffffffffffffffffffffffffff\n              and\n                /* \"Agrigrow.sol\":975:1009  payable(manager).transfer(payment) */\n              0x08fc\n                /* \"Agrigrow.sol\":1001:1008  payment */\n              dup3\n                /* \"Agrigrow.sol\":975:1009  payable(manager).transfer(payment) */\n              swap1\n              dup2\n              iszero\n              mul\n              swap1\n              mload(0x40)\n              0x00\n              mload(0x40)\n              dup1\n              dup4\n              sub\n              dup2\n              dup6\n              dup9\n              dup9\n              call\n              swap4\n              pop\n              pop\n              pop\n              pop\n              iszero\n              dup1\n              iszero\n              tag_27\n              jumpi\n              returndatasize\n              0x00\n              dup1\n              returndatacopy\n              revert(0x00, returndatasize)\n            tag_27:\n              pop\n                /* \"Agrigrow.sol\":818:1017  function withdraw(uint256 payment) public onlyManager {... */\n              pop\n              jump\t// out\n                /* \"Agrigrow.sol\":462:484  address public manager */\n            tag_12:\n              0x00\n              dup1\n              sload\n              swap1\n              0x0100\n              exp\n              swap1\n              div\n              0xffffffffffffffffffffffffffffffffffffffff\n              and\n              dup2\n              jump\t// out\n                /* \"Agrigrow.sol\":692:810  function pay(uint256 due) public payable {... */\n            tag_17:\n                /* \"Agrigrow.sol\":765:768  due */\n              dup1\n                /* \"Agrigrow.sol\":752:761  msg.value */\n              callvalue\n                /* \"Agrigrow.sol\":752:768  msg.value == due */\n              eq\n                /* \"Agrigrow.sol\":744:802  require(msg.value == due, \"enter exact amount to be paid\") */\n              tag_29\n              jumpi\n              mload(0x40)\n              0x08c379a000000000000000000000000000000000000000000000000000000000\n              dup2\n              mstore\n              0x04\n              add\n              tag_30\n              swap1\n              tag_31\n              jump\t// in\n            tag_30:\n              mload(0x40)\n              dup1\n              swap2\n              sub\n              swap1\n              revert\n            tag_29:\n                /* \"Agrigrow.sol\":692:810  function pay(uint256 due) public payable {... */\n              pop\n              jump\t// out\n                /* \"#utility.yul\":88:205   */\n            tag_33:\n                /* \"#utility.yul\":197:198   */\n              0x00\n                /* \"#utility.yul\":194:195   */\n              dup1\n                /* \"#utility.yul\":187:199   */\n              revert\n                /* \"#utility.yul\":334:411   */\n            tag_35:\n                /* \"#utility.yul\":371:378   */\n              0x00\n                /* \"#utility.yul\":400:405   */\n              dup2\n                /* \"#utility.yul\":389:405   */\n              swap1\n              pop\n                /* \"#utility.yul\":334:411   */\n              swap2\n              swap1\n              pop\n              jump\t// out\n                /* \"#utility.yul\":417:539   */\n            tag_36:\n                /* \"#utility.yul\":490:514   */\n              tag_54\n                /* \"#utility.yul\":508:513   */\n              dup2\n                /* \"#utility.yul\":490:514   */\n              tag_35\n              jump\t// in\n            tag_54:\n                /* \"#utility.yul\":483:488   */\n              dup2\n                /* \"#utility.yul\":480:515   */\n              eq\n                /* \"#utility.yul\":470:533   */\n              tag_55\n              jumpi\n                /* \"#utility.yul\":529:530   */\n              0x00\n                /* \"#utility.yul\":526:527   */\n              dup1\n                /* \"#utility.yul\":519:531   */\n              revert\n                /* \"#utility.yul\":470:533   */\n            tag_55:\n                /* \"#utility.yul\":417:539   */\n              pop\n              jump\t// out\n                /* \"#utility.yul\":545:684   */\n            tag_37:\n                /* \"#utility.yul\":591:596   */\n              0x00\n                /* \"#utility.yul\":629:635   */\n              dup2\n                /* \"#utility.yul\":616:636   */\n              calldataload\n                /* \"#utility.yul\":607:636   */\n              swap1\n              pop\n                /* \"#utility.yul\":645:678   */\n              tag_57\n                /* \"#utility.yul\":672:677   */\n              dup2\n                /* \"#utility.yul\":645:678   */\n              tag_36\n              jump\t// in\n            tag_57:\n                /* \"#utility.yul\":545:684   */\n              swap3\n              swap2\n              pop\n              pop\n              jump\t// out\n                /* \"#utility.yul\":690:1019   */\n            tag_8:\n                /* \"#utility.yul\":749:755   */\n              0x00\n                /* \"#utility.yul\":798:800   */\n              0x20\n                /* \"#utility.yul\":786:795   */\n              dup3\n                /* \"#utility.yul\":777:784   */\n              dup5\n                /* \"#utility.yul\":773:796   */\n              sub\n                /* \"#utility.yul\":769:801   */\n              slt\n                /* \"#utility.yul\":766:885   */\n              iszero\n              tag_59\n              jumpi\n                /* \"#utility.yul\":804:883   */\n              tag_60\n              tag_33\n              jump\t// in\n            tag_60:\n                /* \"#utility.yul\":766:885   */\n            tag_59:\n                /* \"#utility.yul\":924:925   */\n              0x00\n                /* \"#utility.yul\":949:1002   */\n              tag_61\n                /* \"#utility.yul\":994:1001   */\n              dup5\n                /* \"#utility.yul\":985:991   */\n              dup3\n                /* \"#utility.yul\":974:983   */\n              dup6\n                /* \"#utility.yul\":970:992   */\n              add\n                /* \"#utility.yul\":949:1002   */\n              tag_37\n              jump\t// in\n            tag_61:\n                /* \"#utility.yul\":939:1002   */\n              swap2\n              pop\n                /* \"#utility.yul\":895:1012   */\n              pop\n                /* \"#utility.yul\":690:1019   */\n              swap3\n              swap2\n              pop\n              pop\n              jump\t// out\n                /* \"#utility.yul\":1025:1151   */\n            tag_38:\n                /* \"#utility.yul\":1062:1069   */\n              0x00\n                /* \"#utility.yul\":1102:1144   */\n              0xffffffffffffffffffffffffffffffffffffffff\n                /* \"#utility.yul\":1095:1100   */\n              dup3\n                /* \"#utility.yul\":1091:1145   */\n              and\n                /* \"#utility.yul\":1080:1145   */\n              swap1\n              pop\n                /* \"#utility.yul\":1025:1151   */\n              swap2\n              swap1\n              pop\n              jump\t// out\n                /* \"#utility.yul\":1157:1253   */\n            tag_39:\n                /* \"#utility.yul\":1194:1201   */\n              0x00\n                /* \"#utility.yul\":1223:1247   */\n              tag_64\n                /* \"#utility.yul\":1241:1246   */\n              dup3\n                /* \"#utility.yul\":1223:1247   */\n              tag_38\n              jump\t// in\n            tag_64:\n                /* \"#utility.yul\":1212:1247   */\n              swap1\n              pop\n                /* \"#utility.yul\":1157:1253   */\n              swap2\n              swap1\n              pop\n              jump\t// out\n                /* \"#utility.yul\":1259:1377   */\n            tag_40:\n                /* \"#utility.yul\":1346:1370   */\n              tag_66\n                /* \"#utility.yul\":1364:1369   */\n              dup2\n                /* \"#utility.yul\":1346:1370   */\n              tag_39\n              jump\t// in\n            tag_66:\n                /* \"#utility.yul\":1341:1344   */\n              dup3\n                /* \"#utility.yul\":1334:1371   */\n              mstore\n                /* \"#utility.yul\":1259:1377   */\n              pop\n              pop\n              jump\t// out\n                /* \"#utility.yul\":1383:1605   */\n            tag_14:\n                /* \"#utility.yul\":1476:1480   */\n              0x00\n                /* \"#utility.yul\":1514:1516   */\n              0x20\n                /* \"#utility.yul\":1503:1512   */\n              dup3\n                /* \"#utility.yul\":1499:1517   */\n              add\n                /* \"#utility.yul\":1491:1517   */\n              swap1\n              pop\n                /* \"#utility.yul\":1527:1598   */\n              tag_68\n                /* \"#utility.yul\":1595:1596   */\n              0x00\n                /* \"#utility.yul\":1584:1593   */\n              dup4\n                /* \"#utility.yul\":1580:1597   */\n              add\n                /* \"#utility.yul\":1571:1577   */\n              dup5\n                /* \"#utility.yul\":1527:1598   */\n              tag_40\n              jump\t// in\n            tag_68:\n                /* \"#utility.yul\":1383:1605   */\n              swap3\n              swap2\n              pop\n              pop\n              jump\t// out\n                /* \"#utility.yul\":1611:1780   */\n            tag_41:\n                /* \"#utility.yul\":1695:1706   */\n              0x00\n                /* \"#utility.yul\":1729:1735   */\n              dup3\n                /* \"#utility.yul\":1724:1727   */\n              dup3\n                /* \"#utility.yul\":1717:1736   */\n              mstore\n                /* \"#utility.yul\":1769:1773   */\n              0x20\n                /* \"#utility.yul\":1764:1767   */\n              dup3\n                /* \"#utility.yul\":1760:1774   */\n              add\n                /* \"#utility.yul\":1745:1774   */\n              swap1\n              pop\n                /* \"#utility.yul\":1611:1780   */\n              swap3\n              swap2\n              pop\n              pop\n              jump\t// out\n                /* \"#utility.yul\":1786:1966   */\n            tag_42:\n                /* \"#utility.yul\":1926:1958   */\n              0x6f6e6c792073656c6c65722063616e207769746864726177206d6f6e65790000\n                /* \"#utility.yul\":1922:1923   */\n              0x00\n                /* \"#utility.yul\":1914:1920   */\n              dup3\n                /* \"#utility.yul\":1910:1924   */\n              add\n                /* \"#utility.yul\":1903:1959   */\n              mstore\n                /* \"#utility.yul\":1786:1966   */\n              pop\n              jump\t// out\n                /* \"#utility.yul\":1972:2338   */\n            tag_43:\n                /* \"#utility.yul\":2114:2117   */\n              0x00\n                /* \"#utility.yul\":2135:2202   */\n              tag_72\n                /* \"#utility.yul\":2199:2201   */\n              0x1e\n                /* \"#utility.yul\":2194:2197   */\n              dup4\n                /* \"#utility.yul\":2135:2202   */\n              tag_41\n              jump\t// in\n            tag_72:\n                /* \"#utility.yul\":2128:2202   */\n              swap2\n              pop\n                /* \"#utility.yul\":2211:2304   */\n              tag_73\n                /* \"#utility.yul\":2300:2303   */\n              dup3\n                /* \"#utility.yul\":2211:2304   */\n              tag_42\n              jump\t// in\n            tag_73:\n                /* \"#utility.yul\":2329:2331   */\n              0x20\n                /* \"#utility.yul\":2324:2327   */\n              dup3\n                /* \"#utility.yul\":2320:2332   */\n              add\n                /* \"#utility.yul\":2313:2332   */\n              swap1\n              pop\n                /* \"#utility.yul\":1972:2338   */\n              swap2\n              swap1\n              pop\n              jump\t// out\n                /* \"#utility.yul\":2344:2763   */\n            tag_21:\n                /* \"#utility.yul\":2510:2514   */\n              0x00\n                /* \"#utility.yul\":2548:2550   */\n              0x20\n                /* \"#utility.yul\":2537:2546   */\n              dup3\n                /* \"#utility.yul\":2533:2551   */\n              add\n                /* \"#utility.yul\":2525:2551   */\n              swap1\n              pop\n                /* \"#utility.yul\":2597:2606   */\n              dup2\n                /* \"#utility.yul\":2591:2595   */\n              dup2\n                /* \"#utility.yul\":2587:2607   */\n              sub\n                /* \"#utility.yul\":2583:2584   */\n              0x00\n                /* \"#utility.yul\":2572:2581   */\n              dup4\n                /* \"#utility.yul\":2568:2585   */\n              add\n                /* \"#utility.yul\":2561:2608   */\n              mstore\n                /* \"#utility.yul\":2625:2756   */\n              tag_75\n                /* \"#utility.yul\":2751:2755   */\n              dup2\n                /* \"#utility.yul\":2625:2756   */\n              tag_43\n              jump\t// in\n            tag_75:\n                /* \"#utility.yul\":2617:2756   */\n              swap1\n              pop\n                /* \"#utility.yul\":2344:2763   */\n              swap2\n              swap1\n              pop\n              jump\t// out\n                /* \"#utility.yul\":2769:2991   */\n            tag_44:\n                /* \"#utility.yul\":2909:2943   */\n              0x74686520627579657220686173206e6f742070616964207468652062696c6c20\n                /* \"#utility.yul\":2905:2906   */\n              0x00\n                /* \"#utility.yul\":2897:2903   */\n              dup3\n                /* \"#utility.yul\":2893:2907   */\n              add\n                /* \"#utility.yul\":2886:2944   */\n              mstore\n                /* \"#utility.yul\":2978:2983   */\n              0x7965740000000000000000000000000000000000000000000000000000000000\n                /* \"#utility.yul\":2973:2975   */\n              0x20\n                /* \"#utility.yul\":2965:2971   */\n              dup3\n                /* \"#utility.yul\":2961:2976   */\n              add\n                /* \"#utility.yul\":2954:2984   */\n              mstore\n                /* \"#utility.yul\":2769:2991   */\n              pop\n              jump\t// out\n                /* \"#utility.yul\":2997:3363   */\n            tag_45:\n                /* \"#utility.yul\":3139:3142   */\n              0x00\n                /* \"#utility.yul\":3160:3227   */\n              tag_78\n                /* \"#utility.yul\":3224:3226   */\n              0x23\n                /* \"#utility.yul\":3219:3222   */\n              dup4\n                /* \"#utility.yul\":3160:3227   */\n              tag_41\n              jump\t// in\n            tag_78:\n                /* \"#utility.yul\":3153:3227   */\n              swap2\n              pop\n                /* \"#utility.yul\":3236:3329   */\n              tag_79\n                /* \"#utility.yul\":3325:3328   */\n              dup3\n                /* \"#utility.yul\":3236:3329   */\n              tag_44\n              jump\t// in\n            tag_79:\n                /* \"#utility.yul\":3354:3356   */\n              0x40\n                /* \"#utility.yul\":3349:3352   */\n              dup3\n                /* \"#utility.yul\":3345:3357   */\n              add\n                /* \"#utility.yul\":3338:3357   */\n              swap1\n              pop\n                /* \"#utility.yul\":2997:3363   */\n              swap2\n              swap1\n              pop\n              jump\t// out\n                /* \"#utility.yul\":3369:3788   */\n            tag_25:\n                /* \"#utility.yul\":3535:3539   */\n              0x00\n                /* \"#utility.yul\":3573:3575   */\n              0x20\n                /* \"#utility.yul\":3562:3571   */\n              dup3\n                /* \"#utility.yul\":3558:3576   */\n              add\n                /* \"#utility.yul\":3550:3576   */\n              swap1\n              pop\n                /* \"#utility.yul\":3622:3631   */\n              dup2\n                /* \"#utility.yul\":3616:3620   */\n              dup2\n                /* \"#utility.yul\":3612:3632   */\n              sub\n                /* \"#utility.yul\":3608:3609   */\n              0x00\n                /* \"#utility.yul\":3597:3606   */\n              dup4\n                /* \"#utility.yul\":3593:3610   */\n              add\n                /* \"#utility.yul\":3586:3633   */\n              mstore\n                /* \"#utility.yul\":3650:3781   */\n              tag_81\n                /* \"#utility.yul\":3776:3780   */\n              dup2\n                /* \"#utility.yul\":3650:3781   */\n              tag_45\n              jump\t// in\n            tag_81:\n                /* \"#utility.yul\":3642:3781   */\n              swap1\n              pop\n                /* \"#utility.yul\":3369:3788   */\n              swap2\n              swap1\n              pop\n              jump\t// out\n                /* \"#utility.yul\":3794:3973   */\n            tag_46:\n                /* \"#utility.yul\":3934:3965   */\n              0x656e74657220657861637420616d6f756e7420746f2062652070616964000000\n                /* \"#utility.yul\":3930:3931   */\n              0x00\n                /* \"#utility.yul\":3922:3928   */\n              dup3\n                /* \"#utility.yul\":3918:3932   */\n              add\n                /* \"#utility.yul\":3911:3966   */\n              mstore\n                /* \"#utility.yul\":3794:3973   */\n              pop\n              jump\t// out\n                /* \"#utility.yul\":3979:4345   */\n            tag_47:\n                /* \"#utility.yul\":4121:4124   */\n              0x00\n                /* \"#utility.yul\":4142:4209   */\n              tag_84\n                /* \"#utility.yul\":4206:4208   */\n              0x1d\n                /* \"#utility.yul\":4201:4204   */\n              dup4\n                /* \"#utility.yul\":4142:4209   */\n              tag_41\n              jump\t// in\n            tag_84:\n                /* \"#utility.yul\":4135:4209   */\n              swap2\n              pop\n                /* \"#utility.yul\":4218:4311   */\n              tag_85\n                /* \"#utility.yul\":4307:4310   */\n              dup3\n                /* \"#utility.yul\":4218:4311   */\n              tag_46\n              jump\t// in\n            tag_85:\n                /* \"#utility.yul\":4336:4338   */\n              0x20\n                /* \"#utility.yul\":4331:4334   */\n              dup3\n                /* \"#utility.yul\":4327:4339   */\n              add\n                /* \"#utility.yul\":4320:4339   */\n              swap1\n              pop\n                /* \"#utility.yul\":3979:4345   */\n              swap2\n              swap1\n              pop\n              jump\t// out\n                /* \"#utility.yul\":4351:4770   */\n            tag_31:\n                /* \"#utility.yul\":4517:4521   */\n              0x00\n                /* \"#utility.yul\":4555:4557   */\n              0x20\n                /* \"#utility.yul\":4544:4553   */\n              dup3\n                /* \"#utility.yul\":4540:4558   */\n              add\n                /* \"#utility.yul\":4532:4558   */\n              swap1\n              pop\n                /* \"#utility.yul\":4604:4613   */\n              dup2\n                /* \"#utility.yul\":4598:4602   */\n              dup2\n                /* \"#utility.yul\":4594:4614   */\n              sub\n                /* \"#utility.yul\":4590:4591   */\n              0x00\n                /* \"#utility.yul\":4579:4588   */\n              dup4\n                /* \"#utility.yul\":4575:4592   */\n              add\n                /* \"#utility.yul\":4568:4615   */\n              mstore\n                /* \"#utility.yul\":4632:4763   */\n              tag_87\n                /* \"#utility.yul\":4758:4762   */\n              dup2\n                /* \"#utility.yul\":4632:4763   */\n              tag_47\n              jump\t// in\n            tag_87:\n                /* \"#utility.yul\":4624:4763   */\n              swap1\n              pop\n                /* \"#utility.yul\":4351:4770   */\n              swap2\n              swap1\n              pop\n              jump\t// out\n\n            auxdata: 0xa26469706673582212204bcfafbc633c3e226d5a392e1df7682600fabc4563bdba3e135c700c135c45c864736f6c634300080a0033\n        }\n    }\n\n    auxdata: 0xa264697066735822122041b18cb015b10cb06d89b8b0933eedfdb563560f2aacecc89fef674fdee9f64264736f6c634300080a0033\n}\n","bytecode":{"linkReferences":{},"object":"608060405234801561001057600080fd5b5061086b806100206000396000f3fe608060405234801561001057600080fd5b50600436106100365760003560e01c8063188184351461003b5780633b1cdb0914610045575b600080fd5b610043610075565b005b61005f600480360381019061005a9190610205565b61012d565b60405161006c9190610241565b60405180910390f35b60003360405161008490610195565b61008e9190610241565b604051809103906000f0801580156100aa573d6000803e3d6000fd5b509050806000803373ffffffffffffffffffffffffffffffffffffffff1673ffffffffffffffffffffffffffffffffffffffff16815260200190815260200160002060006101000a81548173ffffffffffffffffffffffffffffffffffffffff021916908373ffffffffffffffffffffffffffffffffffffffff16021790555050565b60008060008373ffffffffffffffffffffffffffffffffffffffff1673ffffffffffffffffffffffffffffffffffffffff16815260200190815260200160002060009054906101000a900473ffffffffffffffffffffffffffffffffffffffff169050919050565b6105d98061025d83390190565b600080fd5b600073ffffffffffffffffffffffffffffffffffffffff82169050919050565b60006101d2826101a7565b9050919050565b6101e2816101c7565b81146101ed57600080fd5b50565b6000813590506101ff816101d9565b92915050565b60006020828403121561021b5761021a6101a2565b5b6000610229848285016101f0565b91505092915050565b61023b816101c7565b82525050565b60006020820190506102566000830184610232565b9291505056fe608060405234801561001057600080fd5b506040516105d93803806105d9833981810160405281019061003291906100db565b806000806101000a81548173ffffffffffffffffffffffffffffffffffffffff021916908373ffffffffffffffffffffffffffffffffffffffff16021790555050610108565b600080fd5b600073ffffffffffffffffffffffffffffffffffffffff82169050919050565b60006100a88261007d565b9050919050565b6100b88161009d565b81146100c357600080fd5b50565b6000815190506100d5816100af565b92915050565b6000602082840312156100f1576100f0610078565b5b60006100ff848285016100c6565b91505092915050565b6104c2806101176000396000f3fe6080604052600436106100345760003560e01c80632e1a7d4d14610039578063481c6a7514610062578063c290d6911461008d575b600080fd5b34801561004557600080fd5b50610060600480360381019061005b9190610288565b6100a9565b005b34801561006e57600080fd5b506100776101e4565b60405161008491906102f6565b60405180910390f35b6100a760048036038101906100a29190610288565b610208565b005b60008054906101000a900473ffffffffffffffffffffffffffffffffffffffff1673ffffffffffffffffffffffffffffffffffffffff163373ffffffffffffffffffffffffffffffffffffffff1614610137576040517f08c379a000000000000000000000000000000000000000000000000000000000815260040161012e9061036e565b60405180910390fd5b8047101561017a576040517f08c379a000000000000000000000000000000000000000000000000000000000815260040161017190610400565b60405180910390fd5b60008054906101000a900473ffffffffffffffffffffffffffffffffffffffff1673ffffffffffffffffffffffffffffffffffffffff166108fc829081150290604051600060405180830381858888f193505050501580156101e0573d6000803e3d6000fd5b5050565b60008054906101000a900473ffffffffffffffffffffffffffffffffffffffff1681565b80341461024a576040517f08c379a00000000000000000000000000000000000000000000000000000000081526004016102419061046c565b60405180910390fd5b50565b600080fd5b6000819050919050565b61026581610252565b811461027057600080fd5b50565b6000813590506102828161025c565b92915050565b60006020828403121561029e5761029d61024d565b5b60006102ac84828501610273565b91505092915050565b600073ffffffffffffffffffffffffffffffffffffffff82169050919050565b60006102e0826102b5565b9050919050565b6102f0816102d5565b82525050565b600060208201905061030b60008301846102e7565b92915050565b600082825260208201905092915050565b7f6f6e6c792073656c6c65722063616e207769746864726177206d6f6e65790000600082015250565b6000610358601e83610311565b915061036382610322565b602082019050919050565b600060208201905081810360008301526103878161034b565b9050919050565b7f74686520627579657220686173206e6f742070616964207468652062696c6c2060008201527f7965740000000000000000000000000000000000000000000000000000000000602082015250565b60006103ea602383610311565b91506103f58261038e565b604082019050919050565b60006020820190508181036000830152610419816103dd565b9050919050565b7f656e74657220657861637420616d6f756e7420746f2062652070616964000000600082015250565b6000610456601d83610311565b915061046182610420565b602082019050919050565b6000602082019050818103600083015261048581610449565b905091905056fea26469706673582212204bcfafbc633c3e226d5a392e1df7682600fabc4563bdba3e135c700c135c45c864736f6c634300080a0033a264697066735822122041b18cb015b10cb06d89b8b0933eedfdb563560f2aacecc89fef674fdee9f64264736f6c634300080a0033","opcodes":"PUSH1 0x80 PUSH1 0x40 MSTORE CALLVALUE DUP1 ISZERO PUSH2 0x10 JUMPI PUSH1 0x0 DUP1 REVERT JUMPDEST POP PUSH2 0x86B DUP1 PUSH2 0x20 PUSH1 0x0 CODECOPY PUSH1 0x0 RETURN INVALID PUSH1 0x80 PUSH1 0x40 MSTORE CALLVALUE DUP1 ISZERO PUSH2 0x10 JUMPI PUSH1 0x0 DUP1 REVERT JUMPDEST POP PUSH1 0x4 CALLDATASIZE LT PUSH2 0x36 JUMPI PUSH1 0x0 CALLDATALOAD PUSH1 0xE0 SHR DUP1 PUSH4 0x18818435 EQ PUSH2 0x3B JUMPI DUP1 PUSH4 0x3B1CDB09 EQ PUSH2 0x45 JUMPI JUMPDEST PUSH1 0x0 DUP1 REVERT JUMPDEST PUSH2 0x43 PUSH2 0x75 JUMP JUMPDEST STOP JUMPDEST PUSH2 0x5F PUSH1 0x4 DUP1 CALLDATASIZE SUB DUP2 ADD SWAP1 PUSH2 0x5A SWAP2 SWAP1 PUSH2 0x205 JUMP JUMPDEST PUSH2 0x12D JUMP JUMPDEST PUSH1 0x40 MLOAD PUSH2 0x6C SWAP2 SWAP1 PUSH2 0x241 JUMP JUMPDEST PUSH1 0x40 MLOAD DUP1 SWAP2 SUB SWAP1 RETURN JUMPDEST PUSH1 0x0 CALLER PUSH1 0x40 MLOAD PUSH2 0x84 SWAP1 PUSH2 0x195 JUMP JUMPDEST PUSH2 0x8E SWAP2 SWAP1 PUSH2 0x241 JUMP JUMPDEST PUSH1 0x40 MLOAD DUP1 SWAP2 SUB SWAP1 PUSH1 0x0 CREATE DUP1 ISZERO DUP1 ISZERO PUSH2 0xAA JUMPI RETURNDATASIZE PUSH1 0x0 DUP1 RETURNDATACOPY RETURNDATASIZE PUSH1 0x0 REVERT JUMPDEST POP SWAP1 POP DUP1 PUSH1 0x0 DUP1 CALLER PUSH20 0xFFFFFFFFFFFFFFFFFFFFFFFFFFFFFFFFFFFFFFFF AND PUSH20 0xFFFFFFFFFFFFFFFFFFFFFFFFFFFFFFFFFFFFFFFF AND DUP2 MSTORE PUSH1 0x20 ADD SWAP1 DUP2 MSTORE PUSH1 0x20 ADD PUSH1 0x0 KECCAK256 PUSH1 0x0 PUSH2 0x100 EXP DUP2 SLOAD DUP2 PUSH20 0xFFFFFFFFFFFFFFFFFFFFFFFFFFFFFFFFFFFFFFFF MUL NOT AND SWAP1 DUP4 PUSH20 0xFFFFFFFFFFFFFFFFFFFFFFFFFFFFFFFFFFFFFFFF AND MUL OR SWAP1 SSTORE POP POP JUMP JUMPDEST PUSH1 0x0 DUP1 PUSH1 0x0 DUP4 PUSH20 0xFFFFFFFFFFFFFFFFFFFFFFFFFFFFFFFFFFFFFFFF AND PUSH20 0xFFFFFFFFFFFFFFFFFFFFFFFFFFFFFFFFFFFFFFFF AND DUP2 MSTORE PUSH1 0x20 ADD SWAP1 DUP2 MSTORE PUSH1 0x20 ADD PUSH1 0x0 KECCAK256 PUSH1 0x0 SWAP1 SLOAD SWAP1 PUSH2 0x100 EXP SWAP1 DIV PUSH20 0xFFFFFFFFFFFFFFFFFFFFFFFFFFFFFFFFFFFFFFFF AND SWAP1 POP SWAP2 SWAP1 POP JUMP JUMPDEST PUSH2 0x5D9 DUP1 PUSH2 0x25D DUP4 CODECOPY ADD SWAP1 JUMP JUMPDEST PUSH1 0x0 DUP1 REVERT JUMPDEST PUSH1 0x0 PUSH20 0xFFFFFFFFFFFFFFFFFFFFFFFFFFFFFFFFFFFFFFFF DUP3 AND SWAP1 POP SWAP2 SWAP1 POP JUMP JUMPDEST PUSH1 0x0 PUSH2 0x1D2 DUP3 PUSH2 0x1A7 JUMP JUMPDEST SWAP1 POP SWAP2 SWAP1 POP JUMP JUMPDEST PUSH2 0x1E2 DUP2 PUSH2 0x1C7 JUMP JUMPDEST DUP2 EQ PUSH2 0x1ED JUMPI PUSH1 0x0 DUP1 REVERT JUMPDEST POP JUMP JUMPDEST PUSH1 0x0 DUP2 CALLDATALOAD SWAP1 POP PUSH2 0x1FF DUP2 PUSH2 0x1D9 JUMP JUMPDEST SWAP3 SWAP2 POP POP JUMP JUMPDEST PUSH1 0x0 PUSH1 0x20 DUP3 DUP5 SUB SLT ISZERO PUSH2 0x21B JUMPI PUSH2 0x21A PUSH2 0x1A2 JUMP JUMPDEST JUMPDEST PUSH1 0x0 PUSH2 0x229 DUP5 DUP3 DUP6 ADD PUSH2 0x1F0 JUMP JUMPDEST SWAP2 POP POP SWAP3 SWAP2 POP POP JUMP JUMPDEST PUSH2 0x23B DUP2 PUSH2 0x1C7 JUMP JUMPDEST DUP3 MSTORE POP POP JUMP JUMPDEST PUSH1 0x0 PUSH1 0x20 DUP3 ADD SWAP1 POP PUSH2 0x256 PUSH1 0x0 DUP4 ADD DUP5 PUSH2 0x232 JUMP JUMPDEST SWAP3 SWAP2 POP POP JUMP INVALID PUSH1 0x80 PUSH1 0x40 MSTORE CALLVALUE DUP1 ISZERO PUSH2 0x10 JUMPI PUSH1 0x0 DUP1 REVERT JUMPDEST POP PUSH1 0x40 MLOAD PUSH2 0x5D9 CODESIZE SUB DUP1 PUSH2 0x5D9 DUP4 CODECOPY DUP2 DUP2 ADD PUSH1 0x40 MSTORE DUP2 ADD SWAP1 PUSH2 0x32 SWAP2 SWAP1 PUSH2 0xDB JUMP JUMPDEST DUP1 PUSH1 0x0 DUP1 PUSH2 0x100 EXP DUP2 SLOAD DUP2 PUSH20 0xFFFFFFFFFFFFFFFFFFFFFFFFFFFFFFFFFFFFFFFF MUL NOT AND SWAP1 DUP4 PUSH20 0xFFFFFFFFFFFFFFFFFFFFFFFFFFFFFFFFFFFFFFFF AND MUL OR SWAP1 SSTORE POP POP PUSH2 0x108 JUMP JUMPDEST PUSH1 0x0 DUP1 REVERT JUMPDEST PUSH1 0x0 PUSH20 0xFFFFFFFFFFFFFFFFFFFFFFFFFFFFFFFFFFFFFFFF DUP3 AND SWAP1 POP SWAP2 SWAP1 POP JUMP JUMPDEST PUSH1 0x0 PUSH2 0xA8 DUP3 PUSH2 0x7D JUMP JUMPDEST SWAP1 POP SWAP2 SWAP1 POP JUMP JUMPDEST PUSH2 0xB8 DUP2 PUSH2 0x9D JUMP JUMPDEST DUP2 EQ PUSH2 0xC3 JUMPI PUSH1 0x0 DUP1 REVERT JUMPDEST POP JUMP JUMPDEST PUSH1 0x0 DUP2 MLOAD SWAP1 POP PUSH2 0xD5 DUP2 PUSH2 0xAF JUMP JUMPDEST SWAP3 SWAP2 POP POP JUMP JUMPDEST PUSH1 0x0 PUSH1 0x20 DUP3 DUP5 SUB SLT ISZERO PUSH2 0xF1 JUMPI PUSH2 0xF0 PUSH2 0x78 JUMP JUMPDEST JUMPDEST PUSH1 0x0 PUSH2 0xFF DUP5 DUP3 DUP6 ADD PUSH2 0xC6 JUMP JUMPDEST SWAP2 POP POP SWAP3 SWAP2 POP POP JUMP JUMPDEST PUSH2 0x4C2 DUP1 PUSH2 0x117 PUSH1 0x0 CODECOPY PUSH1 0x0 RETURN INVALID PUSH1 0x80 PUSH1 0x40 MSTORE PUSH1 0x4 CALLDATASIZE LT PUSH2 0x34 JUMPI PUSH1 0x0 CALLDATALOAD PUSH1 0xE0 SHR DUP1 PUSH4 0x2E1A7D4D EQ PUSH2 0x39 JUMPI DUP1 PUSH4 0x481C6A75 EQ PUSH2 0x62 JUMPI DUP1 PUSH4 0xC290D691 EQ PUSH2 0x8D JUMPI JUMPDEST PUSH1 0x0 DUP1 REVERT JUMPDEST CALLVALUE DUP1 ISZERO PUSH2 0x45 JUMPI PUSH1 0x0 DUP1 REVERT JUMPDEST POP PUSH2 0x60 PUSH1 0x4 DUP1 CALLDATASIZE SUB DUP2 ADD SWAP1 PUSH2 0x5B SWAP2 SWAP1 PUSH2 0x288 JUMP JUMPDEST PUSH2 0xA9 JUMP JUMPDEST STOP JUMPDEST CALLVALUE DUP1 ISZERO PUSH2 0x6E JUMPI PUSH1 0x0 DUP1 REVERT JUMPDEST POP PUSH2 0x77 PUSH2 0x1E4 JUMP JUMPDEST PUSH1 0x40 MLOAD PUSH2 0x84 SWAP2 SWAP1 PUSH2 0x2F6 JUMP JUMPDEST PUSH1 0x40 MLOAD DUP1 SWAP2 SUB SWAP1 RETURN JUMPDEST PUSH2 0xA7 PUSH1 0x4 DUP1 CALLDATASIZE SUB DUP2 ADD SWAP1 PUSH2 0xA2 SWAP2 SWAP1 PUSH2 0x288 JUMP JUMPDEST PUSH2 0x208 JUMP JUMPDEST STOP JUMPDEST PUSH1 0x0 DUP1 SLOAD SWAP1 PUSH2 0x100 EXP SWAP1 DIV PUSH20 0xFFFFFFFFFFFFFFFFFFFFFFFFFFFFFFFFFFFFFFFF AND PUSH20 0xFFFFFFFFFFFFFFFFFFFFFFFFFFFFFFFFFFFFFFFF AND CALLER PUSH20 0xFFFFFFFFFFFFFFFFFFFFFFFFFFFFFFFFFFFFFFFF AND EQ PUSH2 0x137 JUMPI PUSH1 0x40 MLOAD PUSH32 0x8C379A000000000000000000000000000000000000000000000000000000000 DUP2 MSTORE PUSH1 0x4 ADD PUSH2 0x12E SWAP1 PUSH2 0x36E JUMP JUMPDEST PUSH1 0x40 MLOAD DUP1 SWAP2 SUB SWAP1 REVERT JUMPDEST DUP1 SELFBALANCE LT ISZERO PUSH2 0x17A JUMPI PUSH1 0x40 MLOAD PUSH32 0x8C379A000000000000000000000000000000000000000000000000000000000 DUP2 MSTORE PUSH1 0x4 ADD PUSH2 0x171 SWAP1 PUSH2 0x400 JUMP JUMPDEST PUSH1 0x40 MLOAD DUP1 SWAP2 SUB SWAP1 REVERT JUMPDEST PUSH1 0x0 DUP1 SLOAD SWAP1 PUSH2 0x100 EXP SWAP1 DIV PUSH20 0xFFFFFFFFFFFFFFFFFFFFFFFFFFFFFFFFFFFFFFFF AND PUSH20 0xFFFFFFFFFFFFFFFFFFFFFFFFFFFFFFFFFFFFFFFF AND PUSH2 0x8FC DUP3 SWAP1 DUP2 ISZERO MUL SWAP1 PUSH1 0x40 MLOAD PUSH1 0x0 PUSH1 0x40 MLOAD DUP1 DUP4 SUB DUP2 DUP6 DUP9 DUP9 CALL SWAP4 POP POP POP POP ISZERO DUP1 ISZERO PUSH2 0x1E0 JUMPI RETURNDATASIZE PUSH1 0x0 DUP1 RETURNDATACOPY RETURNDATASIZE PUSH1 0x0 REVERT JUMPDEST POP POP JUMP JUMPDEST PUSH1 0x0 DUP1 SLOAD SWAP1 PUSH2 0x100 EXP SWAP1 DIV PUSH20 0xFFFFFFFFFFFFFFFFFFFFFFFFFFFFFFFFFFFFFFFF AND DUP2 JUMP JUMPDEST DUP1 CALLVALUE EQ PUSH2 0x24A JUMPI PUSH1 0x40 MLOAD PUSH32 0x8C379A000000000000000000000000000000000000000000000000000000000 DUP2 MSTORE PUSH1 0x4 ADD PUSH2 0x241 SWAP1 PUSH2 0x46C JUMP JUMPDEST PUSH1 0x40 MLOAD DUP1 SWAP2 SUB SWAP1 REVERT JUMPDEST POP JUMP JUMPDEST PUSH1 0x0 DUP1 REVERT JUMPDEST PUSH1 0x0 DUP2 SWAP1 POP SWAP2 SWAP1 POP JUMP JUMPDEST PUSH2 0x265 DUP2 PUSH2 0x252 JUMP JUMPDEST DUP2 EQ PUSH2 0x270 JUMPI PUSH1 0x0 DUP1 REVERT JUMPDEST POP JUMP JUMPDEST PUSH1 0x0 DUP2 CALLDATALOAD SWAP1 POP PUSH2 0x282 DUP2 PUSH2 0x25C JUMP JUMPDEST SWAP3 SWAP2 POP POP JUMP JUMPDEST PUSH1 0x0 PUSH1 0x20 DUP3 DUP5 SUB SLT ISZERO PUSH2 0x29E JUMPI PUSH2 0x29D PUSH2 0x24D JUMP JUMPDEST JUMPDEST PUSH1 0x0 PUSH2 0x2AC DUP5 DUP3 DUP6 ADD PUSH2 0x273 JUMP JUMPDEST SWAP2 POP POP SWAP3 SWAP2 POP POP JUMP JUMPDEST PUSH1 0x0 PUSH20 0xFFFFFFFFFFFFFFFFFFFFFFFFFFFFFFFFFFFFFFFF DUP3 AND SWAP1 POP SWAP2 SWAP1 POP JUMP JUMPDEST PUSH1 0x0 PUSH2 0x2E0 DUP3 PUSH2 0x2B5 JUMP JUMPDEST SWAP1 POP SWAP2 SWAP1 POP JUMP JUMPDEST PUSH2 0x2F0 DUP2 PUSH2 0x2D5 JUMP JUMPDEST DUP3 MSTORE POP POP JUMP JUMPDEST PUSH1 0x0 PUSH1 0x20 DUP3 ADD SWAP1 POP PUSH2 0x30B PUSH1 0x0 DUP4 ADD DUP5 PUSH2 0x2E7 JUMP JUMPDEST SWAP3 SWAP2 POP POP JUMP JUMPDEST PUSH1 0x0 DUP3 DUP3 MSTORE PUSH1 0x20 DUP3 ADD SWAP1 POP SWAP3 SWAP2 POP POP JUMP JUMPDEST PUSH32 0x6F6E6C792073656C6C65722063616E207769746864726177206D6F6E65790000 PUSH1 0x0 DUP3 ADD MSTORE POP JUMP JUMPDEST PUSH1 0x0 PUSH2 0x358 PUSH1 0x1E DUP4 PUSH2 0x311 JUMP JUMPDEST SWAP2 POP PUSH2 0x363 DUP3 PUSH2 0x322 JUMP JUMPDEST PUSH1 0x20 DUP3 ADD SWAP1 POP SWAP2 SWAP1 POP JUMP JUMPDEST PUSH1 0x0 PUSH1 0x20 DUP3 ADD SWAP1 POP DUP2 DUP2 SUB PUSH1 0x0 DUP4 ADD MSTORE PUSH2 0x387 DUP2 PUSH2 0x34B JUMP JUMPDEST SWAP1 POP SWAP2 SWAP1 POP JUMP JUMPDEST PUSH32 0x74686520627579657220686173206E6F742070616964207468652062696C6C20 PUSH1 0x0 DUP3 ADD MSTORE PUSH32 0x7965740000000000000000000000000000000000000000000000000000000000 PUSH1 0x20 DUP3 ADD MSTORE POP JUMP JUMPDEST PUSH1 0x0 PUSH2 0x3EA PUSH1 0x23 DUP4 PUSH2 0x311 JUMP JUMPDEST SWAP2 POP PUSH2 0x3F5 DUP3 PUSH2 0x38E JUMP JUMPDEST PUSH1 0x40 DUP3 ADD SWAP1 POP SWAP2 SWAP1 POP JUMP JUMPDEST PUSH1 0x0 PUSH1 0x20 DUP3 ADD SWAP1 POP DUP2 DUP2 SUB PUSH1 0x0 DUP4 ADD MSTORE PUSH2 0x419 DUP2 PUSH2 0x3DD JUMP JUMPDEST SWAP1 POP SWAP2 SWAP1 POP JUMP JUMPDEST PUSH32 0x656E74657220657861637420616D6F756E7420746F2062652070616964000000 PUSH1 0x0 DUP3 ADD MSTORE POP JUMP JUMPDEST PUSH1 0x0 PUSH2 0x456 PUSH1 0x1D DUP4 PUSH2 0x311 JUMP JUMPDEST SWAP2 POP PUSH2 0x461 DUP3 PUSH2 0x420 JUMP JUMPDEST PUSH1 0x20 DUP3 ADD SWAP1 POP SWAP2 SWAP1 POP JUMP JUMPDEST PUSH1 0x0 PUSH1 0x20 DUP3 ADD SWAP1 POP DUP2 DUP2 SUB PUSH1 0x0 DUP4 ADD MSTORE PUSH2 0x485 DUP2 PUSH2 0x449 JUMP JUMPDEST SWAP1 POP SWAP2 SWAP1 POP JUMP INVALID LOG2 PUSH5 0x6970667358 0x22 SLT KECCAK256 0x4B 0xCF 0xAF 0xBC PUSH4 0x3C3E226D GAS CODECOPY 0x2E SAR 0xF7 PUSH9 0x2600FABC4563BDBA3E SGT 0x5C PUSH17 0xC135C45C864736F6C634300080A0033A2 PUSH5 0x6970667358 0x22 SLT KECCAK256 COINBASE 0xB1 DUP13 0xB0 ISZERO 0xB1 0xC 0xB0 PUSH14 0x89B8B0933EEDFDB563560F2AACEC 0xC8 SWAP16 0xEF PUSH8 0x4FDEE9F64264736F PUSH13 0x634300080A0033000000000000 "},"gasEstimates":{"creation":{"codeDepositCost":"431000","executionCost":"468","totalCost":"431468"},"external":{"createSellerContract()":"infinite","getContactAddress(address)":"infinite"}},"methodIdentifiers":{"createSellerContract()":"18818435","getContactAddress(address)":"3b1cdb09"}},"storageLayout":{"storage":[{"astId":5,"contract":"Agrigrow.sol:AgrigrowRoot","label":"addressList","offset":0,"slot":"0","type":"t_mapping(t_address,t_address)"}],"types":{"t_address":{"encoding":"inplace","label":"address","numberOfBytes":"20"},"t_mapping(t_address,t_address)":{"encoding":"mapping","key":"t_address","label":"mapping(address => address)","numberOfBytes":"32","value":"t_address"}}},"userdoc":{"kind":"user","methods":{},"version":1}}